S01200005175616472697650726F2E7372656305
S11300000C942A000C9434000C9434000C943400A6
S11300100C9434000C9434000C9434000C9434008C
S11300200C9434000C9434000C9434000C9434007C
S11300300C9434000C9434000C9434000C9434006C
S11300400C9434000C9434000C9434000C9434005C
S11300500C94340011241FBECFE5D8E0DEBFCDBF21
S11300600E9436000C94A8000C9400008C9AA69A66
S113007084B38C6384BB86E0AE9AAD9AAC9AAB9A97
S1130080AA9A949A2FEF34E39CE021503040904098
S1130090E1F700C00000AE98AD98AC98AB98AA9870
S11300A094982FEF34E39CE0215030409040E1F7E6
S11300B000C00000815001F786E0AE9AAD9AAC9A78
S11300C0AB9AAA9A949A2FEF36E191E121503040ED
S11300D09040E1F700C00000AE98AD98AC98AB98A2
S11300E0AA9894982FEF36E191E121503040904046
S11300F0E1F700C00000815001F786E0AE9AAD9AA6
S1130100AC9AAB9AAA9A949A2FEF38EF95E12150C2
S113011030409040E1F700C00000AE98AD98AC9834
S1130120AB98AA9894982FEF38EF95E1215030407E
S11301309040E1F700C00000815001F72FEF3BE74A
S113014082E9215030408040E1F700C0000093CFA5
S1070150F894FFCF4D
S9030000FC
